:020000040808EA
:1000000000000808D0270808000006000A000501C3
:080010000402BD0B000000001A
:04001800942408081C
:1000200009480A4908B5884205D0094A824202D0E7
:10003000121A02F0EDF90748074A0021121A02F0DD
:10004000F5F9064808BD00BF000000203427080865
:100050007400002078000020B4050020B4050020C2
:1000600070B500F0B3FE0025054E064CA41BA40895
:10007000A54200D170BD56F8043B98470135F7E71B
:10008000102708083027080800F014B808B500F059
:1000900057F8BDE8084000F05BBE00F057BC00F028
:1000A0005DBC0078B0FA80F040097047012303700E
:1000B0007047000010B501F03BFA01F0FBF800F0CA
:1000C00071FF4FF4164100F053FF00F06BFF0F4932
:1000D00000F0C9FC0E4800F072F900F063FF0D4912
:1000E00000F0C1FC00F05EFF0446094800F08EF904
:1000F000094A0A49002818BF1146204600F0B3FCFF
:10010000BDE810400121072001F0CAB9E024080829
:100110007C000020F3240808A8240808C624080846
:1001200070B50646084601F003FE04460D4630460B
:1001300001F0FEFD22462B46BDE8704001F02ABAD0
:100140002DE9F0434FF05A08574B85B00293574BB7
:10015000DFF89C91564C574D0193574B574F584ED3
:1001600022462946009357484B4600F0E3F8CDF865
:1001700000803A6831686FF05903B5F9000000F06B
:1001800079FD514D6FF059032880CDF800803A6811
:100190003168B4F9000000F06DFD4C4C6FF059036C
:1001A0002080CDF800803A683168B9F9000000F08D
:1001B00061FD474E01B2B4F900003180404249422E
:1001C000FFF7AEFF34A3D3E9002301F065FC34A3AD
:1001D000D3E9002301F016FE3E4FC7E90001B6F94E
:1001E0000010B5F9000049424042FFF799FF2AA3E9
:1001F000D3E9002301F050FC29A3D3E9002301F047
:1002000001FE354EC6E90001B5F90010B4F9000051
:1002100049424042FFF784FF1FA3D3E9002301F0C6
:100220003BFC1FA3D3E9002301F0ECFD02242B4D7E
:10023000C5E9000100F0B6FE294900F001FC00F01C
:10024000B1FE0094D7E9002300F0F4FC00F0AAFE10
:10025000244900F0F5FB00F0A5FE0094D6E9002348
:1002600000F0E8FC00F09EFE1F4900F0E9FB00F002
:1002700099FE0094D5E9002300F0DCFC00F092FE2A
:100280001A4900F0F0FB4FF4C87005B0BDE8F04328
:1002900000F0FCBCAFF30080182D4454FB21094052
:1002A000F8C1631ADCA54C409600002094000020A1
:1002B0008E0000208C000020920000200000002012
:1002C000040000207C000020A0000020B0000020DE
:1002D000C000002098000020A8000020B8000020E6
:1002E000112508081A250808232508082C250808C0
:1002F00090000020014800F003B800BF7C000020FF
:1003000068230370704707B5022304220078009128
:100310001B2100F057F903B05DF804FB07B5022379
:100320000422007800911C2100F04CF903B05DF824
:1003300004FB0000F7B51D46034604460F4616466B
:10034000154A13F8010B12883B2100920E2200F08F
:1003500065F86278A37843EA02233B80E278237948
:1003600043EA022333806279A37943EA02232B8094
:10037000627AA37A43EA0223089A1380E27A237B03
:1003800043EA0223099A1380627BA37B43EA022398
:100390000A9A138003B0F0BD080000200B46062225
:1003A0006B21007800F0EAB807B503230222007839
:1003B00000916B2100F006F903B05DF804FB10B565
:1003C00004460121FFF7F0FF20460021FFF79BFFC5
:1003D00020460021FFF7A2FF2046BDE81040002183
:1003E000FFF7DCBF034613B5074A0446128813F82B
:1003F000010B7521CDE9003206231A4600F077F88B
:10040000607802B010BD00BF0800002008B5FFF7FB
:10041000E9FFA0F134035842584108BD2DE9F74FD8
:1004200016469B4607468A460025BDF8308000F0F8
:1004300001F9202E3346A8BF202381462C46019384
:10044000B5423AD201F074F8394600F065FF01F088
:100450006FF8036851469B68984701F069F800F00F
:1004600063FF01F065F8394600F056FF01F060F8CF
:10047000721B202AA8BF20223946D2B200F049FFC1
:1004800001F056F803681B69984790B1B8F1000F66
:1004900009D101F04DF803685B6998470BF8040037
:1004A000013464B2ECE700F0C5F8A0EB0900404568
:1004B000EFD3019B1D44EDB2C2E7B8F1000F09D0A4
:1004C00000F0B8F8A0EB0909C14503D3B442B8BFA6
:1004D0004FF0FF34204603B0BDE8F08F07B500931E
:1004E00013460122FFF79AFF03B05DF804FB37B50E
:1004F00014461D460DF10702BDF81C30FFF7EEFF54
:1005000058B10123621BAB4001329DF80710013B3B
:1005100093400B401341069A137003B030BDF8B5F9
:10052000074615461C460E4601F002F8394600F013
:10053000F3FE00F0FDFF036831469B6898472544B1
:10054000AC4207D000F0F4FF036814F8011B9B686D
:100550009847F5E700F0ECFF00F0E6FEB0FA80F017
:100560004009F8BD07B58DF807200DF107030122FA
:10057000FFF7D5FF03B05DF804FB00002DE9F34160
:10058000904601241F460E4B0DF107021B880546BD
:100590000E46FFF7A3FF04FA08F252B29DF8074097
:1005A00057B12243D2B2314628468DF80720FFF7D3
:1005B000D9FF02B0BDE8F08124EA0202F3E700BFF0
:1005C00008000020F7B51F46114B16461B880DF199
:1005D000070204460D46FFF781FFB8B101239DF8DD
:1005E0002010F21BBB400132013B934001FA02F2A2
:1005F0009DF80710D2B221EA0301134041EA030239
:10060000204629468DF80720FFF7ACFF03B0F0BD68
:100610000800002008B5024B1B689B68019308BDC9
:10062000B001040808B5024B1B685B68019308BD64
:100630009C01040808B5024B1B685B69019308BD67
:100640009C01040808B5024B1B685B6C019308BD54
:10065000D001040808B5024B1B689B6C019308BDD0
:10066000D001040808B5024B1B689B69019308BDC3
:10067000C401040808B5024B1B685B6A019308BDFE
:10068000C401040808B5024B1B689B6A019308BDAE
:10069000C401040808B5024B1B68DB6A019308BD5E
:1006A000C401040808B5024B1B681B6B019308BD0D
:1006B000C401040808B5024B1B685B6B019308BDBD
:1006C000C401040808B5024B1B689B6B019308BD6D
:1006D000C401040808B5024B1B681B6C019308BDDC
:1006E000C401040808B5024B1B68DB68019308BD10
:1006F000AC01040808B5024B1B689B69019308BD57
:10070000AC01040808B5024B1B68DB69019308BD06
:10071000AC01040808B5024B1B681B6A019308BDB5
:10072000AC01040808B5024B1B685B6A019308BD65
:10073000AC01040808B5024B1B689B6A019308BD15
:10074000AC01040808B5024B1B68DB6A019308BDC5
:10075000AC01040808B5024B1B681B6B019308BD74
:10076000AC01040808B5024B1B685B6B019308BD24
:10077000AC01040808B5024B1B681B6C019308BD53
:10078000AC01040808B5024B1B681B6D019308BD42
:10079000AC01040808B5024B1B68DB69019308BD76
:1007A000B401040808B5024B1B681B6A019308BD1D
:1007B000B401040808B5024B1B68DB6B019308BD4C
:1007C0002000060808B5024B1B681B68019308BD92
:1007D0001C00060808B5024B1B685B68019308BD46
:1007E0001C00060808B5024B1B681B69019308BD75
:1007F0001C00060808B5024B1B685B69019308BD25
:100800001C00060808B5024B1B689B69019308BDD4
:100810001C00060808B5024B1B68DB69019308BD84
:100820001C00060808B5024B1B681B6A019308BD33
:100830001C00060808B5024B1B685B68019308BDE5
:10084000A401040808B5024B1B685B69019308BD4D
:10085000A401040808B5034B1B68D3F8903001933A
:1008600008BD0000A401040808B5034B1B68D3F8B9
:100870009C30019308BD0000A401040808B5024B98
:100880001B685B68019308BDC801040808B5024BEA
:100890001B689B68019308BDC801040808B5024B9A
:1008A0001B68DB68019308BDC801040808B5024B4A
:1008B0001B681B69019308BDC801040808B5024BF9
:1008C0001B685B69019308BDC801040808B5024BA9
:1008D0001B689B69019308BDC801040808B5024B59
:1008E0001B68DB69019308BDC801040808B5024B09
:1008F0001B681B6A019308BDC801040808B5024BB8
:100900001B681B6B019308BDC801040808B5024BA6
:100910001B685B6B019308BDC801040808B5024B56
:100920001B681B6C019308BDC801040808B5024B85
:100930001B685B6C019308BDC801040808B5024B35
:100940001B68DB6B019308BDCC01040808B5024BA2
:100950001B681B68019308BDA001040808B5024B81
:100960001B685B68019308BDA001040808B5024B31
:100970001B685B6C019308BDA001040870B50026DC
:1009800004460D4640F8086FFFF75CFE28462570C8
:10099000FFF700FF2046666070BD10B50446006892
:1009A00018B1FFF7DBFF0023236010BD10B504462C
:1009B000FFF7F3FF204610BD0222002010B5084BC0
:1009C000084C1A60084B2060A080A071A360FFF75C
:1009D00031FF2046BDE81040044A054900F0D0BD73
:1009E000D0000020C40000200000FFFF780000209D
:1009F000AD090808F8B506460D4600248F18BD421B
:100A00000CD0336830469B6815F8011B9847031ECD
:100A100001DB1C44F3E7002C08BF1C462046F8BD50
:100A200070B505460C46084649B101F02BFD2B6810
:100A3000024621462846BDE87040DB68184770BD75
:100A400008B5FFF7EDFF08BD03689B68184738B588
:100A50000D210546FFF7F8FF0A2104462846FFF757
:100A6000F3FF204438BD38B50546FFF7D9FF0446EB
:100A70002846FFF7ECFF204438BD0023012A98BF29
:100A80000A2230B58BB00C468DF8243009A92546D2
:100A9000B4FBF2F404FB1253DBB2092B94BF3033E6
:100AA0003733DBB2AA4201F8013DF0D9FFF7B8FFB6
:100AB0000BB030BD2DE9F74F05461946104692465A
:100AC0001F469DF8306001F037FC40B15049284680
:100AD000FFF7A6FF0446204603B0BDE8F08F27F0DD
:100AE00000444FF0FF32504621464A4B01F024FCAF
:100AF00048B94FF0FF3250462146464B01F0FEFB0D
:100B000008B94549E3E74FF0604250463946434B48
:100B100001F008FC08B14249D9E74FF06042504665
:100B20003946404B01F0E0FB0028F4D100220023BD
:100B30005046394601F0D8FB044630B12D212846F5
:100B4000FFF782FF044607F100474FF0000B00203B
:100B50004FF000083449DFF8D8905FFA8BF39E42DB
:100B600006D942464B4601F077FA0BF1010BF4E748
:100B70003B46524600F090FF8946804601F01AFC41
:100B8000074601F0C5F802460B464046494600F0CC
:100B900081FF0A228046894628463946FFF76DFFC5
:100BA000044426B128462149FFF73AFF04444FF098
:100BB000000ADFF87CB0013EF6B2FF2E8BD0524621
:100BC0005B464046494601F01DF98046894601F0E2
:100BD000C9FB071E19DA2D212846FFF735FF03460A
:100BE00079420A2228460193FFF747FF019B0344FD
:100BF00038461C4401F09CF802460B4640464946E4
:100C000000F048FF80468946D5E739460023E8E7EB
:100C100056250808FFFFEF7F5A250808FFFFEF4120
:100C20005E250808FFFFEFC10000E03FF12408083F
:100C30000000244037B59DF8181005460091FFF7D5
:100C400039FF04462846FFF702FF204403B030BDB9
:100C5000014B024A1A607047D40000206225080840
:100C6000024B1A68024B1A60704700BF0C0000204C
:100C7000D80000208A4210B507D0029C401AE41A1E
:100C80006043521A90FBF2F0184410BD0021FFF7A8
:100C9000D9BD10B58368044613B1032201469847B5
:100CA000204610BD10B50446FFF7F3FF204610BDE7
:100CB00000230348034A0449836000F061BC00BF7D
:100CC000DC00002078000020A50C0808014B18600B
:100CD000704700BF1000002008B5174B43B100F06B
:100CE00061F903681B699847002801DDAFF30080B4
:100CF000124B43B100F078FA03681B69984700284B
:100D000001DDAFF300800E4B0BB1AFF300800D4B54
:100D10000BB1AFF300800C4B0BB1AFF300800B4B6A
:100D200043B100F07DF903681B699847002801DD95
:100D3000AFF3008008BD00BF00000000000000000D
:100D400000000000000000000000000000000000A3
:100D500008B5FFF7C1FFFFF76DFC014B186008BD38
:100D6000900500200248034A0349121A01F050BBC3
:100D7000004002400440024030270808002307B525
:100D80001A466FF077010093FFF76EFD03B05DF830
:100D900004FB000007B543880A2B08D0502B0BD169
:100DA000094B1B684BB103B05DF804EB1847FFF724
:100DB000E5FF03B05DF804FB00231A466FF07701EE
:100DC0000093FFF751FDF4E7F000002038B5124C16
:100DD00000211248FFF7CAFD114D2368AB420CBF3A
:100DE000012200220F4B1A7002D0FFF7BBFF2560D3
:100DF000FFF718FC044601F021FB0B4B13B1204612
:100E0000AFF3008000210848FFF798FDBDE83840A7
:100E100000210648FFF71EBD00400240CD0C080827
:100E20001E1C279AEC00002000000000950D080809
:100E30007047F8B50E46002400F10807051D17F8A5
:100E4000011D0A223046FFF718FEAF42044401D1CB
:100E50002046F8BD002CF2D02E213046FFF7F4FDDD
:100E60000444ECE710B50446082100F08EFB204650
:100E700010BD0000024A026000224260704700BFBD
:100E80008C250808024A02600A684260704700BF69
:100E90008C250808014AC0E9002170478C25080804
:100EA00010B59DF8084044EA032444EA024444EAA9
:100EB0000164446010BD000037B5044D05609DF825
:100EC00018500095FFF7ECFF03B030BD8C250808E3
:100ED00041747047704708B50021007CFFF792FC11
:100EE00040EAE07008BD08B50121007CFFF78AFCEC
:100EF00040EAE07008BD08B5007CFFF77BFC20EA03
:100F0000E07008BD08B5007CFFF76CFC20EAE070DB
:100F100008BD38B50446007C0D46FFF76BFC002881
:100F200001DC607C28B12946207CFFF773FC20EAB5
:100F3000E07038BD007CFFF775BC10B50446142185
:100F400000F023FB204610BD10B54FF47A73044621
:100F500008460021C4E90113044B207423600123D7
:100F600011466374FFF72EFC204610BDA02508082B
:100F70000022007CFFF72EBC10B50446142200218D
:100F800001F054FA054B20466360054BE36040F2E4
:100F9000011323818123238210BD00BF240100207F
:100FA0002502002030B50F4D87B001A8FFF7E4FF00
:100FB0002978BFF35B8F11F0010410D12846FFF7A9
:100FC00070F860B1214601AA0748FFF7BDFF284627
:100FD000FFF76CF8054A0649034800F0D1FA0248C9
:100FE00007B030BDF4000020FC0000207800002095
:100FF000D50E080810B504461422002101F016FA97
:10100000054B20466360054BE36040F201132381EA
:101010008123238210BD00BFA6020020A703002069
:1010200010B50F4C86B001A8FFF7E4FF2378BFF39B
:101030005B8FDB0710D42046FFF733F860B1012146
:1010400001AA0848FFF780FF2046FFF72FF8064A5D
:101050000649044800F094FA024806B010BD00BFEB
:10106000F80000201001002078000020D50E0808AC
:10107000002240681146FFF719BCF0B5002685B084
:10108000044610460F461546039601F0FBF97B68AF
:1010900081B20096284603AAFFF78CFB30B1314697
:1010A0002046FFF7F7FE204605B0F0BD204603A915
:1010B000FFF7E8FEF7E7002240681146FFF716BC8D
:1010C000002240681146FFF721BC00224068FFF76C
:1010D00015BC0022406881F00101FFF7FFBB00232F
:1010E00040681A461946FFF7F1BB002340681A46CC
:1010F0001946FFF7E3BB002240681146FFF7C6BB65
:10110000002202214068FFF7C9BB002340681A464D
:10111000FFF7B4BB10B52824074B22461846002120
:1011200001F084F94FF0FF3242600422034B048047
:101130005A60034A1A6010BD3004002028040020C1
:10114000D025080870474174704708B5007CFFF748
:10115000C1FA20EAE07008BD08B5007CFFF792FAFA
:1011600020EAE07008BD08B5007CFFF79BFA40EA72
:10117000E07008BD08B5007CFFF78CFA40EAE0702B
:1011800008BD007CFFF796BA70B5467C04460D4654
:101190002EB12946207CBDE87040FFF76BBA007C79
:1011A000FFF798FA0028F4DC304670BD10B504460D
:1011B000142100F0EAF9204610BD00004FF0000CA9
:1011C00010B50446084611464FF47A72C4E901C2CC
:1011D000044A20742260012262741A46FFF742FA20
:1011E000204610BD0C26080838B50D4D2978BFF3F0
:1011F0005B8F11F0010411D12846FEF752FF68B150
:101200002146084A084B0948FFF7D8FF2846FEF751
:101210004DFF074A0749054800F0B2F9034838BDB9
:10122000580400205C040020E00400206405002035
:1012300078000020451108087047F8B506461546A5
:101240000C468F18BC4206D0336830469B6814F8B1
:10125000011B9847F6E72846F8BD0022007CFFF7FF
:1012600059BA0021007CFFF75DBA0021007CFFF72E
:1012700061BA0021007CFFF765BA0021007CFFF70E
:1012800069BA10B50446142100F07FF9204610BD5C
:1012900010B54FF47A73044608460021C4E90113DF
:1012A000034B114623602074FFF764FA204610BDFB
:1012B0003C2608080023007C1A461946FFF712BA9C
:1012C0007FB500221423CDE90122ADF804300B785C
:1012D000007C8DF808304B680393CB6804930B7A3D
:1012E00001A90593FFF74EFA07B05DF804FB1FB59F
:1012F000003B8DF800104FF0640118BF01230391EB
:10130000694601928DF80830FFF7DAFF05B05DF805
:1013100004FB0123FFF7EBBF0022007CFFF7EAB9D3
:101320000022007CFFF7EEB90121FFF7F9BF00238F
:1013300040681A46FFF7A2BA002202214068FFF770
:10134000ADBA002240681146FFF7A0BA00224068FB
:101350001146FFF7ABBA002340681A461946FFF75B
:10136000ADBA002340681A461946FFF7AFBA00210C
:101370004068FFF7D3BA00214068FFF7D7BA0022D0
:10138000406881F00101FFF7A9BA00224068FFF729
:10139000B5BA002240681146FFF7B8BA002240688B
:1013A0001146FFF7A3BA000070B51546002686B0B7
:1013B000044604A8FFF75EFD2846039601F062F894
:1013C0000A4B009681B25B68284603AAFFF7F2F940
:1013D00030B131462046FFF75DFD204606B070BDB6
:1013E000204603A9FFF74EFDF7E700BF28040020C1
:1013F000024B034A1A6000225A60704778050020A9
:101400006426080810B50446806808B1FFF722F981
:10141000204610BD2E2870B5044601D9002070BDAD
:10142000A0F10D03022B0BD9012826D800F080F87B
:101430000021007CFFF796F980F00100C0B2EEE7D2
:10144000134E3178BFF35B8F11F001050FD1304699
:10145000FEF727FE58B129460E48FFF78FFA3046AF
:10146000FEF724FE0C4A0D490A4800F089F8094BA2
:101470001878FFF797F90028D0D1123C012C05D835
:10148000FFF7B2FE007CFFF71DF9D5E70120C6E7A4
:10149000800500208405002078000020051408083D
:1014A0002E2838B504460D460AD8FF2908D0FFF784
:1014B000B1FF28B129462046BDE83840FFF7AAB859
:1014C00038BD0000002313B5074C1A4619462046C4
:1014D0000093FFF7F1FC2046044A054902B0BDE83D
:1014E000104000F04DB800BF9405002078000020A7
:1014F000310E0808002370B5202543801423084EC0
:1015000004460380314685600561284600F03FF8B7
:1015100031466060284600F03AF8E060204670BD31
:101520009826080810B50446FFF7E4FF204610BDD2
:1015300030B50F4D87B02978BFF35B8F11F00104F0
:1015400013D12846FEF7ADFD78B101A8FFF7EAFFF9
:10155000214601AA0748FFF79BFE2846FEF7A6FD95
:10156000054A0649034800F00BF8024807B030BDB1
:101570009C050020A00500207800002039120808F2
:101580000B460146184600F035BFFEF788BDFEF752
:1015900084BD000000F000B82DE9F84F1F4653420B
:1015A0005F4E134327F0004949EAD373B342944690
:1015B0000D4686463BD84442044321F0004A4AEA9D
:1015C000D474B44203468B4631D807F1404404F545
:1015D000801414433BD0BC1704F002045AEA0303FE
:1015E00044EAD1742BD059EA020334D0B14545D036
:1015F000B24530D0AAEB0909B9F1747F4FEA2953FB
:1016000038DA002F46DA3C3344DA00200021012C7E
:1016100058D0022C49D084B135A3D3E9002300F07F
:1016200039FA35A3D3E9002300F034FA05E0724615
:1016300060462B46394600F02FFABDE8F88F022CA1
:1016400010D0032CF9D12EA1D1E90001F5E7BDE8B6
:10165000F84F00F06DB8BBF1000F07DB2AA1D1E90C
:101660000001EAE724A1D1E90001E6E728A1D1E9D8
:101670000001E2E724A1D1E90001C8E7CA4504F16D
:10168000FF3423D0022C29D8264B03EBC404D4E921
:101690000001D2E7624670463B46294600F0DCFC7A
:1016A00000F0F0F900F044F8B1E711A3D3E900230A
:1016B00000F0F0F902460B460FA1D1E9000100F05D
:1016C000E9F9BAE701F100431946B6E7022C08D858
:1016D000154B03EBC404D4E90001AEE70020002160
:1016E000ABE70DA1D1E90001A7E700BFAFF3008090
:1016F000075C143326A6A13C182D4454FB21094055
:10170000182D4454FB2109C0182D4454FB21F93FE6
:10171000182D4454FB21F9BF182D4454FB21E93FF7
:101720000000F07FB8260808A02608080000000086
:101730002DE9F04FC64B21F0004683B09E4204468F
:101740008A46019111DDC34B9E4200F3B88000F040
:10175000B380C14BC14AC24CBAF1000FD8BF134687
:101760002046194603B0BDE8F08FBE4B9E4200F301
:10177000C180A3F1DE739E4240F3AE804FF0FF3B89
:10178000019B22461946204600F03CFB02460B46D0
:101790008046894600F036FB95A3D3E90023064630
:1017A0000F4600F02FFB94A3D3E9002300F074F957
:1017B00032463B4600F026FB91A3D3E9002300F01C
:1017C0006BF932463B4600F01DFB8FA3D3E90023A3
:1017D00000F062F932463B4600F014FB8CA3D3E9DB
:1017E000002300F059F932463B4600F00BFB8AA378
:1017F000D3E9002300F050F942464B4600F002FBCB
:1018000087A3D3E90023804689463046394600F055
:10181000F9FA85A3D3E9002300F03CF932463B46B0
:1018200000F0F0FA82A3D3E9002300F033F9324646
:101830003B4600F0E7FA80A3D3E9002300F02AF941
:1018400032463B4600F0DEFA7DA3D3E9002300F0E8
:1018500021F932463B4600F0D5FABBF1FF3F024684
:101860000B466ED04046494600F016F97E4E2246A1
:10187000019B00F0C7FA7D4B06EBCB064FEACB0B82
:101880009B44DBE9002300F005F92246019B00F0B0
:1018900001F90B460246D6E9000100F0FBF8BAF167
:1018A000000F04460B46BFF65BAF01F10043204634
:1018B000194603B0BDE8F08F00283FF44AAF019B02
:1018C00022462046194600F0E7F804460B4620461B
:1018D000194603B0BDE8F08F5BA3D3E9002300F005
:1018E000DBF80022624B00F01DFD00283FF446AFFC
:1018F000534635E700F0C6F85E4B04469E420D465F
:1019000034DCA3F550239E4259DC02460B4600F01E
:10191000C3F80022564B00F0BDF800224FF0804380
:1019200006460F462046294600F0B6F802460B460A
:101930003046394600F090FB4FF0000B0446019111
:101940001EE74046494600F0A7F82246019B00F0FA
:1019500059FA02460B462046019900F09BF80446CE
:101960000B462046194603B0BDE8F08F424B9E421D
:101970001ADA0022414B00F08DF8002206460F468D
:1019800020463E4B294600F03DFA0022384B00F03D
:1019900083F802460B463046394600F05DFB4FF0B7
:1019A000020B04460191EBE602460B460020344947
:1019B00000F052FB4FF0030B04460191E0E60022D9
:1019C0002B4B00F067F8002206460F462046284BB6
:1019D000294600F061F802460B463046394600F0D1
:1019E0003BFB4FF0010B04460191C9E6AFF30080C9
:1019F00011DA22E33AAD903FEB0D76244B7BA93F01
:101A0000513DD0A0660DB13F6E204CC5CD45B73FCE
:101A1000FF8300922449C23F0D5555555555D53F7A
:101A20002F6C6A2C44B4A2BF9AFDDE522DDEAD3F6E
:101A30006D9A74AFF2B0B33F711623FEC671BC3F0E
:101A4000C4EB98999999C93F9C7500883CE4377E0E
:101A5000FFFF0F440000F07FFB21F93FFB21F9BF9E
:101A6000182D4454FFFFDB3FD0260808F026080855
:101A70000000F03FFFFFF23F008003400000F83F0E
:101A80000000F0BF21F00041704700BF81F000412D
:101A900002E000BF83F0004330B54FEA41044FEA53
:101AA000430594EA050F08BF90EA020F1FBF54EAEE
:101AB000000C55EA020C7FEA645C7FEA655C00F08A
:101AC000E2804FEA5454D4EB5555B8BF6D420CDD5B
:101AD0002C4480EA020281EA030382EA000083EADE
:101AE000010180EA020281EA0303362D88BF30BD7E
:101AF00011F0004F4FEA01314FF4801C4CEA1131D4
:101B000002D0404261EB410113F0004F4FEA033332
:101B10004CEA133302D0524263EB430394EA050FBD
:101B200000F0A780A4F10104D5F1200E0DDB02FA2C
:101B30000EFC22FA05F2801841F1000103FA0EF2C0
:101B4000801843FA05F359410EE0A5F120050EF186
:101B5000200E012A03FA0EFC28BF4CF0020C43FAB7
:101B600005F3C01851EBE37101F0004507D54FF0C4
:101B7000000EDCF1000C7EEB00006EEB0101B1F514
:101B8000801F1BD3B1F5001F0CD349085FEA30005A
:101B90004FEA3C0C04F101044FEA445212F5800F65
:101BA00080F09A80BCF1004F08BF5FEA500C50F102
:101BB000000041EB045141EA050130BD5FEA4C0CE5
:101BC000404141EB0101013C28BFB1F5801FE9D242
:101BD00091F0000F04BF01460020B1FA81F308BF65
:101BE0002033A3F10B03B3F120020CDA0C3208DD31
:101BF00002F1140CC2F10C0201FA0CF021FA02F10C
:101C00000CE002F11402D8BFC2F1200C01FA02F17B
:101C100020FA0CFCDCBF41EA0C019040E41AA2BFA0
:101C200001EB0451294330BD6FEA04041F3C1CDA68
:101C30000C340EDC04F11404C4F1200220FA04F088
:101C400001FA02F340EA030021FA04F345EA030132
:101C500030BDC4F10C04C4F1200220FA02F001FAF4
:101C600004F340EA0300294630BD21FA04F0294676
:101C700030BD94F0000F83F4801306BF81F480110F
:101C80000134013D4EE77FEA645C18BF7FEA655C82
:101C900029D094EA050F08BF90EA020F05D054EA54
:101CA000000C04BF1946104630BD91EA030F1EBF59
:101CB0000021002030BD5FEA545C05D1400049415D
:101CC00028BF41F0004130BD14F580043CBF01F550
:101CD000801130BD01F0004545F0FE4141F4700136
:101CE0004FF0000030BD7FEA645C1ABF1946104611
:101CF0007FEA655C1CBF0B46024650EA013406BF12
:101D000052EA033591EA030F41F4002130BD00BFD0
:101D100090F0000F04BF0021704730B54FF480648D
:101D200004F132044FF000054FF0000150E700BF0E
:101D300090F0000F04BF0021704730B54FF480646D
:101D400004F1320410F0004548BF40424FF000015A
:101D50003EE700BF42004FEAE2014FEA31014FEA9D
:101D600002701FBF12F07F4393F07F4F81F06051EC
:101D7000704732F07F4208BF704793F07F4F04BF37
:101D800041F40021704730B54FF4607401F0004514
:101D900021F000411CE700BF50EA010208BF704774
:101DA00030B54FF000050AE050EA010208BF704765
:101DB00030B511F0004502D5404261EB41014FF4CE
:101DC000806404F132045FEA915C3FF4D8AE4FF0D6
:101DD00003025FEADC0C18BF03325FEADC0C18BFB9
:101DE000033202EBDC02C2F1200300FA03FC20FA0A
:101DF00002F001FA03FE40EA0E0021FA02F1144457
:101E0000BDE600BF70B54FF0FF0C4CF4E06C1CEA6F
:101E100011541DBF1CEA135594EA0C0F95EA0C0FE0
:101E200000F0DEF82C4481EA030621EA4C5123EA53
:101E30004C5350EA013518BF52EA033541F4801182
:101E400043F4801338D0A0FB02CE4FF00005E1FB35
:101E500002E506F00042E0FB03E54FF00006E1FB7F
:101E600003569CF0000F18BF4EF0010EA4F1FF04C2
:101E7000B6F5007F64F5407404D25FEA4E0E6D4102
:101E800046EB060642EAC62141EA55514FEAC52013
:101E900040EA5E504FEACE2EB4F1FD0C88BFBCF58F
:101EA000E06F1ED8BEF1004F08BF5FEA500E50F140
:101EB000000041EB045170BD06F0004646EA010106
:101EC00040EA020081EA0301B4EB5C04C2BFD4EB38
:101ED0000C0541EA045170BD41F480114FF0000E31
:101EE000013C00F3AB8014F1360FDEBF002001F09F
:101EF000004170BDC4F10004203C35DA0C341BDC19
:101F000004F11404C4F1200500FA05F320FA04F0EA
:101F100001FA05F240EA020001F0004221F000411E
:101F200010EBD37021FA04F642EB06015EEA430E91
:101F300008BF20EAD37070BDC4F10C04C4F12005C1
:101F400000FA04F320FA05F001FA04F240EA020074
:101F500001F0004110EBD37041F100015EEA430E45
:101F600008BF20EAD37070BDC4F1200500FA05F265
:101F70004EEA020E20FA04F301FA05F243EA0203E4
:101F800021FA04F001F0004121FA04F220EA0200F3
:101F900000EBD3705EEA430E08BF20EAD37070BD39
:101FA00094F0000F0FD101F00046400041EB010119
:101FB00011F4801F08BF013CF7D041EA060195F0FB
:101FC000000F18BF704703F00046520043EB0303B5
:101FD00013F4801F08BF013DF7D043EA06037047A2
:101FE00094EA0C0F0CEA135518BF95EA0C0F0CD0AD
:101FF00050EA410618BF52EA4306D1D181EA0301F3
:1020000001F000414FF0000070BD50EA410606BFEC
:102010001046194652EA430619D094EA0C0F02D131
:1020200050EA013613D195EA0C0F05D152EA033676
:102030001CBF104619460AD181EA030101F0004194
:1020400041F0FE4141F470014FF0000070BD41F0DD
:10205000FE4141F4780170BD70B54FF0FF0C4CF4B7
:10206000E06C1CEA11541DBF1CEA135594EA0C0FD6
:1020700095EA0C0F00F0A7F8A4EB050481EA030E23
:1020800052EA03354FEA013100F088804FEA03330A
:102090004FF0805545EA131343EA12634FEA0222D8
:1020A00045EA111545EA10654FEA00260EF0004199
:1020B0009D4208BF964244F1FD0404F5407402D2EB
:1020C0005B084FEA3202B61A65EB03055B084FEA7C
:1020D00032024FF480104FF4002CB6EB020E75EB79
:1020E000030E22BFB61A754640EA0C005B084FEAA1
:1020F0003202B6EB020E75EB030E22BFB61A75461E
:1021000040EA5C005B084FEA3202B6EB020E75EB68
:10211000030E22BFB61A754640EA9C005B084FEAE0
:102120003202B6EB020E75EB030E22BFB61A7546ED
:1021300040EADC0055EA060E18D04FEA051545EADC
:1021400016754FEA06164FEAC30343EA52734FEA85
:10215000C2025FEA1C1CC0D111F4801F0BD141EAFE
:1021600000014FF000004FF0004CB6E711F4801F63
:1021700004BF01430020B4F1FD0C88BFBCF5E06F43
:102180003FF6AFAEB5EB030C04BFB6EB020C5FEA53
:10219000500C50F1000041EB045170BD0EF0004EA8
:1021A0004EEA113114EB5C04C2BFD4EB0C0541EADA
:1021B000045170BD41F480114FF0000E013C90E6D7
:1021C00045EA060E8DE60CEA135594EA0C0F08BF9B
:1021D00095EA0C0F3FF43BAF94EA0C0F0AD150EA9A
:1021E00001347FF434AF95EA0C0F7FF425AF10462D
:1021F00019462CE795EA0C0F06D152EA03353FF455
:10220000FDAE1046194622E750EA410618BF52EAD1
:1022100043067FF4C5AE50EA41047FF40DAF52EAA5
:1022200043057FF4EBAE12E74FF0FF3C06E000BF42
:102230004FF0010C02E000BF4FF0010C4DF804CD4F
:102240004FEA410C7FEA6C5C4FEA430C18BF7FEA0F
:102250006C5C1BD001B050EA410C0CBF52EA430C3D
:1022600091EA030F02BF90EA020F0020704710F1BD
:10227000000F91EA030F58BF994208BF90422CBF4C
:10228000D8176FEAE37040F0010070474FEA410C45
:102290007FEA6C5C02D150EA013C07D14FEA430C63
:1022A0007FEA6C5CD6D152EA033CD3D05DF8040BD4
:1022B000704700BF8446104662468C461946634606
:1022C00000E000BF01B5FFF7B7FF002848BF10F1DD
:1022D000000F01BD4DF808EDFFF7F4FF0CBF012022
:1022E00000205DF808FB00BF4DF808EDFFF7EAFF9E
:1022F00034BF012000205DF808FB00BF4DF808ED59
:10230000FFF7E0FF94BF012000205DF808FB00BF4D
:102310004DF808EDFFF7CEFF94BF012000205DF8D7
:1023200008FB00BF4DF808EDFFF7C4FF34BF0120E4
:1023300000205DF808FB00BF4FEA410C7FEA6C5CAF
:1023400002D150EA013C0AD14FEA430C7FEA6C5CAF
:1023500002D152EA033C02D14FF0000070474FF027
:10236000010070474FEA410212F5001215D211D553
:102370006FF47873B3EB625212D94FEAC12343F082
:10238000004343EA505311F0004F23FA02F018BF04
:10239000404270474FF00000704750EA013005D1CD
:1023A00011F0004008BF6FF0004070474FF0000090
:1023B000704700BF4A0011D212F5001211D20DD59C
:1023C0006FF47873B3EB62520ED44FEAC12343F03B
:1023D000004343EA505323FA02F070474FF00000E5
:1023E000704750EA013002D14FF0FF3070474FF094
:1023F0000000704710B504460448134620B10A4651
:1024000002202146AFF3008010BD00BF0000000095
:102410000A44914200F1FF3300D1704710B511F822
:10242000014B914203F8014FF9D110BD034602441C
:10243000934200D1704703F8011BF9E738B50D4B03
:1024400004461D68AB6B7BB91820FEF77FFA0A4A79
:102450000A4BA863C0E90023094B012283600B23C8
:1024600083810023C0E904230022AB6B1C615A6105
:1024700038BD00BF100000200E33CDAB34126DE626
:10248000ECDE0500034613F8012B002AFBD1181AD5
:102490000138704721000808610008088900080811
:1024A0008D000808000000004D50553630353020B2
:1024B000636F6E6E656374696F6E207375636365B9
:1024C000737366756C004D50553630353020636F30
:1024D0006E6E656374696F6E206661696C65640019
:1024E000496E697420493243206465766963652EBC
:1024F0002E2E0074657374696E67204D505536300A
:10250000353020636F6E6E656374696F6E2E2E2E8C
:1025100000416E676C65583D2000416E676C6559DF
:102520003D2000416E676C655A3D20002D2D2D2DFC
:102530002D2D2D2D2D2D2D2D2D2D2D2D2D2D2D2DCB
:102540002D2D2D2D2D2D2D2D2D2D2D2D2D2D2D2DBB
:102550002D2D2D2D2D006E616E00696E66006F763B
:1025600066006170700025592D256D2D2564542558
:10257000483A254D3A2553257A0061736374696D95
:10258000650000000000000000000000330E080895
:10259000310E0808650E0808000000000000000069
:1025A000D50E08083B0F0808130F0808F50908089E
:1025B000050F0808D70E0808E70E0808350F0808A9
:1025C000F70E0808D10E0808000000000000000007
:1025D0000B11080801110808F71008087110080805
:1025E000EB100808DF1008086F13080877130808B5
:1025F000D3100808CB100808C1100808B710080845
:102600007B100808000000000000000045110808C9
:10261000AD11080889110808F509080859110808BA
:102620007511080867110808831108084711080880
:102630004B110808000000000000000039120808D3
:10264000831208085B1208083B1208086312080886
:102650006B120808731208087B12080800000000BB
:10266000000000002F130808391308084313080856
:102670004D13080857130808631308086F13080858
:10268000771308087F1308088B13080893130808AA
:102690009D130808A91308080000000000000000AE
:1026A000182D4454FB21E9BFD221337F7CD902404D
:1026B000D221337F7CD902C00000000000000080DE
:1026C000182D4454FB210940182D4454FB2109C006
:1026D0004FBB610567ACDD3F182D4454FB21E93F3A
:1026E0009BF681D20B73EF3F182D4454FB21F93F29
:1026F000E2652F227F2B7A3C075C143326A6813CAF
:10270000BDCBF07A8807703C075C143326A6913C59
:10271000F5020808B9090808510C0808610C0808F6
:10272000B10C080815110808F1130808C5140808A9
:0427300000000000A5
:102734009201000009010000E80300007A2508085E
:102744001400002000000000000000000000000051
:102754000000000000000000000000000000000075
:102764000000000000000000000000000000000065
:102774000000000000000000000000000000000055
:102784000000000000000000000000000000000045
:102794000000000000000000000000000000000035
:0427A4000000000031
:1027A800FFFFFFFF00000102030405060708090AEE
:1027B8000B0C0D0E0F101112131415161718191AE9
:0827C8001B1C1D1E1F20280030
:0427D00078563412F1
:0400000508080020C7
:00000001FF
